:020000040800F2
:100000009006002089010008750400086D040008AE
:10001000710400084B020008850C00080000000075
:10002000000000000000000000000000F9040008CB
:100030003F0300080000000095040008E5050008E3
:10004000A3010008A3010008A3010008A301000800
:10005000A3010008A3010008A3010008A3010008F0
:10006000A3010008A3010008A3010008A3010008E0
:10007000A3010008A3010008A3010008A3010008D0
:10008000A3010008A3010008A3010008A3010008C0
:10009000590C0008A3010008A3010008A3010008EF
:1000A000A3010008A3010008A3010008A3010008A0
:1000B0004906000821070008A3010008A301000861
:1000C000A3010008A3010008A3010008A301000880
:1000D000A3010008A3010008A3010008A301000870
:1000E000A3010008A3010008A301000800F002F822
:1000F00000F03AF80AA090E8000C82448344AAF188
:100100000107DA4501D100F02FF8AFF2090EBAE885
:100110000F0013F0010F18BFFB1A43F0010318473B
:100120001414000034140000103A24BF78C878C1B9
:10013000FAD8520724BF30C830C144BF04680C60ED
:10014000704700000023002400250026103A28BF35
:1001500078C1FBD8520728BF30C148BF0B60704739
:100160001FB51FBD10B510BD00F031F81146FFF7E7
:10017000F7FF00F0AFFD00F04FF803B4FFF7F2FF18
:1001800003BC00F057F800000948804709480047C1
:10019000FEE7FEE7FEE7FEE7FEE7FEE7FEE7FEE737
:1001A000FEE7FEE704480549054A064B7047000094
:1001B000E9050008ED0000089000002090060020EE
:1001C00090020020900200207047704770477546EB
:1001D00000F02CF8AE4605006946534620F00700B3
:1001E000854618B020B5FFF7DDFFBDE820404FF091
:1001F00000064FF000074FF000084FF0000B21F011
:100200000701AC46ACE8C009ACE8C009ACE8C009DD
:10021000ACE8C0098D46704710B50446AFF30080C6
:100220002046BDE81040FFF7A8BF00000048704717
:100230002C00002001491820ABBEFEE7260002007A
:10024000704710B500F070FD10BD00BFFEE710B59F
:1002500000F5D87303EB01131B6803F0040313725A
:10026000137A53B900F5D87303EB01131B6840F2FE
:10027000FF7404EA5353136009E000F5D87303EBED
:1002800001131B686FF0604404EAD303536000F568
:10029000D87303EB01131B6803F00203537200F5DC
:1002A000D87303EB01135B6803F00F03937200F53F
:1002B000D87303EB01135B681B0AD37400F5D87382
:1002C00003EB01139B68D37200F5D87303EB0113A2
:1002D0009B681C0A147300F5D87303EB01139B6829
:1002E0001C0C547300F5D87303EB01139B681B0EB1
:1002F000937300F5D87303EB0113DB68D37300F538
:10030000D87303EB0113DB681C0A147400F5D8736F
:1003100003EB0113DB681C0C547400F5D87303EB7A
:100320000113DB681B0E937421B9C36843F02003EB
:10033000C36003E0036943F02003036110BD70470D
:100340002DE9F0410246002500260020002300246C
:10035000002791F803C00CF00F0591F803C00CF0D2
:10036000100CBCF1000F03D091F802C04CEA050557
:1003700091F800C0BCF1000F31D0146800202BE0D0
:100380004FF0010C0CFA00F3B1F800C00CEA0306C0
:100390009E4220D183004FF00F0C0CFA03F7BC43B0
:1003A00005FA03FC4CEA040491F803C0BCF1280FE1
:1003B00006D14FF0010C0CFA00FCC2F814C00AE0A0
:1003C00091F803C0BCF1480F05D14FF0010C0CFAB5
:1003D00000FCC2F810C0401C0828D1D31460B1F84A
:1003E00000C0BCF1FF0F34DD546800202EE000F1A6
:1003F000080C4FF0010808FA0CF3B1F800C00CEA41
:1004000003069E4221D183004FF00F0C0CFA03F734
:10041000BC4305FA03FC4CEA040491F803C0BCF1A8
:10042000280F05D100F1080C08FA0CF8C2F8148066
:1004300091F803C0BCF1480F07D100F1080C4FF050
:10044000010808FA0CF8C2F81080401C0828CED326
:100450005460BDE8F0810246002093680B400BB168
:10046000012000E0002070470161704700BFFEE7F7
:1004700000BFFEE77047000010B5002420210448AB
:10048000FFF7E9FF012800D10124204610BD00003C
:10049000000C01407047000029B1064A126902436E
:1004A000044B1A6104E0034A12698243014B1A614A
:1004B000704700000010024029B1064A92690243C9
:1004C000044B9A6104E0034A92698243014B9A61AA
:1004D000704700000010024029B1064AD26802436A
:1004E000044BDA6004E0034AD2688243014BDA60CD
:1004F0007047000000100240704710B500F002F88D
:1005000010BD00000CB50020019000903348006839
:1005100040F480303149086000BF3048006800F482
:10052000003000900198401C0190009818B9019883
:10053000B0F5A06FF1D12948006800F4003010B187
:100540000120009001E0002000900098012843D194
:100550002348006840F01000214908600846006800
:1005600020F0030008600846006840F002000860C0
:100570001A4840681949486008464068486008467B
:10058000406840F4806048600846406820F47C1071
:1005900048600846406840F4E81048600846006833
:1005A00040F08070086000BF0C48006800F00070E8
:1005B0000028F9D00948406820F003000749486046
:1005C0000846406840F00200486000BF03484068A9
:1005D00000F00C000828F9D10CBD0000001002400A
:1005E000002002407047000010B51348006840F03A
:1005F00001001149086008464068104908400E494A
:100600004860084600680E4908400B4908600846E3
:10061000006820F4802008600846406820F4FE004E
:1006200048604FF41F008860FFF767FF4FF00060DD
:100630000449086010BD0000001002400000FFF8EF
:10064000FFFFF6FE08ED00E02DE9FF5F2948008876
:1006500000B2404228490860002026490880274807
:100660000068254909680844244908602449096844
:10067000214A1268881A00F0FFFE224908602248C9
:10068000006800F0B2FC0646204A214B00F0C4FC92
:1006900004460D461B48006800F0A6FE06461D4AAB
:1006A0001D4B00F0B9FC804622462B4600F0C6FBED
:1006B00082468B461948006800F097FC52465B461C
:1006C000CDE9000100F0BAFBCDE9020100F05EFCCB
:1006D000124908600B48006800F0B2FE0A49086041
:1006E0000E48006800F0D0FA0121880700F07CF87D
:1006F000BDE8FF9F240400402000002014000020DB
:100700001000002018000020240000207B14AE47B9
:10071000E17A943F9A9999999999A93F28000020E4
:1007200010B52448007800F0800000283CD1012159
:10073000214800F06BF990B11E48007800F04000AD
:1007400068B11E480088401C1C4908800846008883
:10075000802804DD1A480088401C194908800221BD
:10076000154800F053F9F8B11248007800F0400045
:1007700098B112480088802802DA002010490880C9
:100780000E4800880E4909880844B0F5845F04DBF0
:100790000C480088401C0B4908800A4800887F28C4
:1007A00002DD0020064908800321034800F01CF800
:1007B00010BD000006000020000400400A000020D8
:1007C0000E0000200C0000200A884B881A438B88FA
:1007D0001A43CB881A430B891A434B891A438B89D6
:1007E0001A43A0F844207047CA430282704721B1DF
:1007F000028842F00102028004E002884FF6FE7394
:100800001A400280704731B1B0F8442042F40042EF
:10081000A0F8442005E0B0F84420C2F30E02A0F88E
:100820004420704710B504466848844208D101212D
:10083000C014FFF751FE0021E014FFF74DFEC4E0A5
:10084000B4F1804F08D101210846FFF725FE0021B1
:100850000120FFF721FEB8E05D48844208D1012164
:100860000220FFF719FE00210220FFF715FEACE081
:100870005848844208D101210420FFF70DFE0021D1
:100880000420FFF709FEA0E05348844208D101216B
:100890000820FFF701FE00210820FFF7FDFD94E08E
:1008A0004E48844208D101211020FFF7F5FD0021B8
:1008B0001020FFF7F1FD88E04948844208D101216A
:1008C0002020FFF7E9FD00212020FFF7E5FD7CE077
:1008D0004448844208D101214014FFF7FDFD002166
:1008E0006014FFF7F9FD70E03F48844209D101210F
:1008F000C804FFF7F1FD00214FF40020FFF7ECFDE5
:1009000063E03A48844209D101210805FFF7E4FD7C
:1009100000214FF48010FFF7DFFD56E03448844299
:1009200009D101214805FFF7D7FD00214FF4001040
:10093000FFF7D2FD49E02F48844208D10121402031
:10094000FFF7AAFD00214020FFF7A6FD3DE02A4861
:10095000844208D101218020FFF79EFD00218020E4
:10096000FFF79AFD31E02548844208D10121801526
:10097000FFF792FD0021A015FFF78EFD25E020482E
:10098000844209D101210804FFF7A6FD00214FF49C
:100990008030FFF7A1FD18E01A48844209D10121F7
:1009A0004804FFF799FD00214FF40030FFF794FD54
:1009B0000BE01548844208D101218804FFF78CFD23
:1009C00000214FF48020FFF787FD10BD002C01406F
:1009D0000004004000080040000C004000100040EF
:1009E0000014004000340140004C01400050014020
:1009F0000054014000180040001C0040002000404E
:100A000000400140004401400048014030B502462A
:100A1000002000230024158A05EA0103958905EAD0
:100A2000010413B10CB1012000E0002030BD000032
:100A300070B5002400220023058C4FF6EF76354078
:100A40000584028C8388048B48F6FF752C404FF692
:100A5000FF452C400D884FF6FF7606EA05252C430E
:100A60004FF6DF752A400D8906EA05152A434D88A1
:100A700006EA05152A43154DA84202D0144DA84296
:100A80001DD14FF67F752A404D894FF6FF7606EA55
:100A900005152A434FF6BF752A408D8806EA0515CD
:100AA0002A434FF6FF352B404FF2FF752B408D89BF
:100AB00006EA85052B43CD8906EA85052B4383800D
:100AC0000483CD880587028470BD0000002C01409E
:100AD000003401400A460021018B4FF2FF73194098
:100AE0004FF6FF7303EA02231943018370470000A6
:100AF00070B5002400220023058C4FF6FF663540B8
:100B00000584028C8388848B4FF68F752C404FF6BA
:100B1000FC752C400D882C434FF6FF552A400D895B
:100B20004FF6FF7606EA05252A434D8806EA052595
:100B30002A43154DA84202D0144DA8421DD14FF2B0
:100B4000FF752A404D894FF6FF7606EA05252A43B0
:100B50004FF6FF352A408D8806EA05252A434EF6D2
:100B6000FF752B404DF6FF752B408D8906EA051564
:100B70002B43CD8906EA05152B4383808483CD88DA
:100B80008587028470BD0000002C014000340140C4
:100B90000A460021818B4FF6F77319401143818378
:100BA00070470A46002101894FF68F73194011439F
:100BB00001817047002202881D4B98420ED01D4BC8
:100BC00098420BD0B0F1804F08D01B4B984205D013
:100BD0001A4B984202D01A4B984204D14FF68F73A9
:100BE0001A404B881A43174B984207D0164B98422D
:100BF00004D04FF6FF431A40CB881A4302808B88FB
:100C000083850B8803850A4B98420BD0094B984289
:100C100008D00E4B984205D00D4B984202D00D4B98
:100C2000984201D10B7A038601238382704700002A
:100C3000002C014000340140000400400008004046
:100C4000000C004000100040001400400040014033
:100C5000004401400048014000B585B06A460021CB
:100C60000648FFF7F4FA9DF80B00A22803D19DF87F
:100C70000C000349087005B000BD0000006400408E
:100C80000400002000BFFEE7002804DD4FF4B0613F
:100C90000A4A118006E0002804DA4FF40561074A89
:100CA00011804042C0F52F700A2800DC0A20034A58
:100CB00018321080121D108070470000202C014057
:100CC0004FF4FA5200FB02F100BF0A1EA1F101012C
:100CD000FBD1704710B5FFF7B4FA002402E0FFF72C
:100CE000CBFB0446002CFAD020210D48FFF7BCFBBB
:100CF0004FF47A70FFF7C8FF4FF47A70FFF7E0FF08
:100D00000848FFF7C1FF4FF47A70FFF7D9FF1021B1
:100D10000348FFF7A9FB0020FFF7B6FF002010BD36
:100D2000000C014018FCFFFF00B58DB0012140F61A
:100D30000D00FFF7C1FB4FF4C060ADF83000182084
:100D40008DF8330003208DF832000CA93848FFF7E6
:100D5000F7FA4FF44040ADF8300018208DF833001A
:100D600003208DF832000CA93248FFF7E9FA324827
:100D7000FFF758FD0220ADF824004020ADF8260012
:100D80004FF42F70ADF828000020ADF82A008DF840
:100D90002C0009A92848FFF70DFF7020ADF81400BA
:100DA0000020ADF81600ADF818004FF42F70ADF824
:100DB0001A000020ADF81C00ADF81E00ADF82000B0
:100DC000ADF8220005A91C48FFF732FE05A91A4814
:100DD000FFF78EFE4FF40060ADF804004010ADF850
:100DE00006008010ADF808006420ADF80A0000206D
:100DF000ADF80C00ADF80E00ADF8100001A90E48DA
:100E0000FFF7E2FC08210C48FFF764FE08210A48BE
:100E1000FFF7BEFE20210848FFF7C3FE0121064868
:100E2000FFF7F1FC01210448FFF7E1FC0DB000BD24
:100E300000080140000C0140002C014010B591EA6F
:100E4000030F48BF83F0004300F1EC81841A71EB7B
:100E5000030C05D2121943EB0C03001B61EB0C01D0
:100E6000DFF824E14FEA1154A4EB135C1EEA430FB0
:100E700018BF9EEA445F73D023EA0E03DCF1200E14
:100E800021EA045143F4801332D322FA0CFE10EB12
:100E90000E0023FA0CFE41EB0E01CCF1200E03FAFA
:100EA0000EFE10EB0E0051F10001B1F5801FCCF1E8
:100EB000200E32D201EB045112FA0EF2BDE81040BE
:100EC00058BF7047401C38BF5FEA420218BF7047E6
:100ED000002814BF20F0010041F100014FEA410356
:100EE00013F5001F38BF7047A1F1C04100F08CB965
:100EF000012A43EB0302ACF1200CDCF11F0E32BFE0
:100F00004FF0000E23FA0CF310EB030041EB0451F9
:100F1000B4EB115FD0D0A1EB045101F58011490869
:100F20005FEA300001EB04510ED350F1000038BFEE
:100F300012FA0EFE08D1BDE81040C9E7401C38BFC8
:100F40005FEA4202CAD1C3E7BDE810404FEA41035D
:100F500013F5001F38BF7047A1F1C04100F054B92C
:100F60009EEA445F08D011EA5E0FBDE8104004BF5E
:100F700001F0004100207047BDE8104070B500F05E
:100F8000F5F800BF64FBBE3E0000E0FF4FEA4103FE
:100F90004FEA5353A3F58063D3F11E03C8BFD3F1C7
:100FA000210C0CDD4FF0004242EAC12242EA5052CD
:100FB00032FA03FC8CEAE17CACEBE1707047102B59
:100FC000C4BF0020704703F5787CBCF1FF3F04D01C
:100FD0006FF0004282EA2100704770B500F0C6F859
:100FE0004992248000207047F2E710F0004248BF89
:100FF0004042B0FA80F310FA03F10AD0C3F11D03A6
:1010000003F580634FEA415002EB035202EBD1211A
:1010100070474FF000007047DFF848C170B51CEA18
:10102000111E1EBF1CEA13159EEA0C0F95EA0C0F49
:1010300000F06F8081EA030423EA4C134EEAD47E69
:1010400021EA4C1141F4801143F48013AE44A1FB1A
:10105000024CA0FB0365AEF17F7E361955EB0C0503
:10106000A1FB034C4CF10003A0FB021C16EB0C0689
:10107000654153F10003094218BF46F0010613F41D
:10108000007F0BD14FEA03314FEA0530340341EAC8
:10109000155140EA16506FF003020AE04FEAC321EF
:1010A0004FEAC520F40241EA555140EA56506FF02C
:1010B000020202EB2E4201EB025585EACE710AD004
:1010C0005FEA440C18BF24F0004450F1000041F1E5
:1010D000000120EAD47040F2FE7C624500D270BD6F
:1010E000A84214BF4FF080444FF04044002E08BF88
:1010F0000024BEF1806FA8BFA1F1C041BDE87040DF
:1011000080F282804FF0000001F1C04101F0004107
:1011100070479EEA0C0F0CEA131518BF95EA0C0FE6
:1011200006D04FF0000081EA030E0EF0004170BDC2
:1011300000F01CF88900013E00F007B800F009B883
:101140004FEA430C5FEA5C5C08D081EA030100F0DF
:101150005BB84FEA410C5FEA5C5CF6D14FF00000EF
:10116000014970470000FF070000F87F0EF1020EF2
:101170002EF0030E5EF8046B364205D4012A43EBD1
:10118000030515F5001F12D8012841EB010C1CF5D1
:10119000001F0CD80ED14FEAD17C15F5001F0CEBC7
:1011A0004C0C0CF1020C08BF4CEBD37C04E04FF06C
:1011B000080C01E04FEAD37C0CEB4C0526FA05F64F
:1011C00006F00706B6F1040C06D20EEB860CBDE85D
:1011D00070404CF0010C6047DFE80CF0090B020294
:1011E0004FF000414FF00000A1F5002170BD1946FD
:1011F0001046012851EB010418BFD4F5001484BF38
:10120000002001F0004170BD0808A0F500114FEA70
:101210003101704710B591EA030F48BF83F00043D6
:101220003FF514AE841A71EB030C07D212198CF03F
:10123000004C43EB0C03001B61EB0C01DFF8A4E155
:101240004FEA1154A4EB135C1EEA430F18BF9EEA49
:10125000445F00F0B08023EA6E03524221EA045159
:10126000C3EB6E0338BF5B1EDCF1200E25D322FAE0
:101270000CFE10EB0E0043FA0CFE41EB0E01CCF11C
:10128000200E03FA0EFE10EB0E0051F10001CCF11E
:10129000200E29D412FA0EF201EB0451BDE81040E1
:1012A00058BF7047401C1CBFB2F1004F7047002868
:1012B0000CBF491C20F00100704712EB020E43EBFB
:1012C000030218BF4FF0010E4EEA4202ACF1200CAF
:1012D000DCF11E0E54D943FA0CFE10EB0E0051F156
:1012E000FF31CCF11E0ED5D50EF1010E12FA0EFE15
:1012F000404141EB010101EB445C5FEA5C5C10D9C9
:1013000010EBDE7001EB045138BFBEF1004FBDE8B9
:10131000104018BF704700280CBF491C20F0010086
:10132000704730D24FEAD42C11F5001124F4006438
:101330001BD0B1FA81F20B3AA41AA41ED2F12003F9
:10134000914030FA03F31943904001EBCC71002C2B
:1013500001EB0451BDE81040A8BF704701F1C04146
:101360004FF0000001F000417047B0FA80F310FA2E
:1013700003F100D110BDE41A173C4805C90AE4E79F
:1013800001EB045110BD491001EB0451BDE81040C0
:101390004FEA300002E04FF0000170474A0008BFFA
:1013A0000042F8D0B2F5001F28BF704701F000419D
:1013B0004FF0000070479EEA445F07D011EA5E0FCD
:1013C000BDE8104004BF002100207047BDE8104078
:1013D00070B5FFF7CBFE00BF40DFF63E83F0004163
:1013E000104670470000E0FF43004FEAD30C4FEA7D
:1013F0003C0C43401FBF40070CF1605113F0FE4FFF
:1014000070471CF0006F03D100200CF000417047C2
:101410000CF0004343EA507010B540EACC0000F0F5
:1014200043F800BF000000924FEA0001FFF7ECBE56
:101430004FF000414FF00000A1F50021704700007F
:1014400041000B0ED3F19E0208D950F400034FEA7D
:10145000032323FA02F048BF4042704710B500F062
:1014600023F800BF49922480002070476FF00042AB
:1014700082EA20007047000010F0004148BF40425F
:10148000B0FA80F310FA03F2C3F19D030BD051EAD6
:10149000C35101EB1220530638BF704700F1010021
:1014A00008BF20F0010070470EF1020E2EF0030E6F
:1014B0005EF8044B244204D44FEA4102B2F17F4F5C
:1014C00011D84FEA4003B3F17F4F0CD80ED14FEA49
:1014D000D07CB2F17F4F0CEB4C0C0CF1020C08BF2E
:1014E0004CEBD17C04E04FF0080C01E04FEAD17CDA
:1014F0000CEB4C0324FA03F404F00704B4F1040CDD
:1015000006D20EEB840CBDE810404CF0010C604795
:10151000DFE80CF0070802024FF00040A0F5800061
:1015200010BD0846420018BFD2F1807288BF00F09B
:10153000004010BD54150008000000202C000000E1
:1015400028010008801500082C0000206406000017
:10155000440100080000000000000000000000003E
:10156000000000000000000000000000000000007B
:10157000000000000000000000000000000000006B
:04000005080000ED02
:00000001FF
